{"abi":[{"type":"constructor","inputs":[{"name":"initialSupply","type":"uint256","internalType":"uint256"}],"stateMutability":"nonpayable"},{"type":"function","name":"allowance","inputs":[{"name":"owner","type":"address","internalType":"address"},{"name":"spender","type":"address","internalType":"address"}],"outputs":[{"name":"","type":"uint256","internalType":"uint256"}],"stateMutability":"view"},{"type":"function","name":"approve","inputs":[{"name":"spender","type":"address","internalType":"address"},{"name":"value","type":"uint256","internalType":"uint256"}],"outputs":[{"name":"","type":"bool","internalType":"bool"}],"stateMutability":"nonpayable"},{"type":"function","name":"balanceOf","inputs":[{"name":"account","type":"address","internalType":"address"}],"outputs":[{"name":"","type":"uint256","internalType":"uint256"}],"stateMutability":"view"},{"type":"function","name":"calculateReward","inputs":[{"name":"user","type":"address","internalType":"address"}],"outputs":[{"name":"","type":"uint256","internalType":"uint256"}],"stateMutability":"view"},{"type":"function","name":"decimals","inputs":[],"outputs":[{"name":"","type":"uint8","internalType":"uint8"}],"stateMutability":"view"},{"type":"function","name":"getStakingInfo","inputs":[{"name":"user","type":"address","internalType":"address"}],"outputs":[{"name":"_stakingBalance","type":"uint256","internalType":"uint256"},{"name":"_stakingDuration","type":"uint256","internalType":"uint256"},{"name":"_potentialReward","type":"uint256","internalType":"uint256"},{"name":"_isStaking","type":"bool","internalType":"bool"}],"stateMutability":"view"},{"type":"function","name":"isStaking","inputs":[{"name":"","type":"address","internalType":"address"}],"outputs":[{"name":"","type":"bool","internalType":"bool"}],"stateMutability":"view"},{"type":"function","name":"mint","inputs":[{"name":"to","type":"address","internalType":"address"},{"name":"amount","type":"uint256","internalType":"uint256"}],"outputs":[],"stateMutability":"nonpayable"},{"type":"function","name":"name","inputs":[],"outputs":[{"name":"","type":"string","internalType":"string"}],"stateMutability":"view"},{"type":"function","name":"owner","inputs":[],"outputs":[{"name":"","type":"address","internalType":"address"}],"stateMutability":"view"},{"type":"function","name":"renounceOwnership","inputs":[],"outputs":[],"stateMutability":"nonpayable"},{"type":"function","name":"rewardRate","inputs":[],"outputs":[{"name":"","type":"uint256","internalType":"uint256"}],"stateMutability":"view"},{"type":"function","name":"stakeTokens","inputs":[{"name":"amount","type":"uint256","internalType":"uint256"}],"outputs":[],"stateMutability":"nonpayable"},{"type":"function","name":"stakingBalance","inputs":[{"name":"","type":"address","internalType":"address"}],"outputs":[{"name":"","type":"uint256","internalType":"uint256"}],"stateMutability":"view"},{"type":"function","name":"stakingTimestamp","inputs":[{"name":"","type":"address","internalType":"address"}],"outputs":[{"name":"","type":"uint256","internalType":"uint256"}],"stateMutability":"view"},{"type":"function","name":"symbol","inputs":[],"outputs":[{"name":"","type":"string","internalType":"string"}],"stateMutability":"view"},{"type":"function","name":"totalSupply","inputs":[],"outputs":[{"name":"","type":"uint256","internalType":"uint256"}],"stateMutability":"view"},{"type":"function","name":"transfer","inputs":[{"name":"to","type":"address","internalType":"address"},{"name":"value","type":"uint256","internalType":"uint256"}],"outputs":[{"name":"","type":"bool","internalType":"bool"}],"stateMutability":"nonpayable"},{"type":"function","name":"transferFrom","inputs":[{"name":"from","type":"address","internalType":"address"},{"name":"to","type":"address","internalType":"address"},{"name":"value","type":"uint256","internalType":"uint256"}],"outputs":[{"name":"","type":"bool","internalType":"bool"}],"stateMutability":"nonpayable"},{"type":"function","name":"transferOwnership","inputs":[{"name":"newOwner","type":"address","internalType":"address"}],"outputs":[],"stateMutability":"nonpayable"},{"type":"function","name":"unstakeTokens","inputs":[],"outputs":[],"stateMutability":"nonpayable"},{"type":"event","name":"Approval","inputs":[{"name":"owner","type":"address","indexed":true,"internalType":"address"},{"name":"spender","type":"address","indexed":true,"internalType":"address"},{"name":"value","type":"uint256","indexed":false,"internalType":"uint256"}],"anonymous":false},{"type":"event","name":"OwnershipTransferred","inputs":[{"name":"previousOwner","type":"address","indexed":true,"internalType":"address"},{"name":"newOwner","type":"address","indexed":true,"internalType":"address"}],"anonymous":false},{"type":"event","name":"Staked","inputs":[{"name":"user","type":"address","indexed":true,"internalType":"address"},{"name":"amount","type":"uint256","indexed":false,"internalType":"uint256"}],"anonymous":false},{"type":"event","name":"Transfer","inputs":[{"name":"from","type":"address","indexed":true,"internalType":"address"},{"name":"to","type":"address","indexed":true,"internalType":"address"},{"name":"value","type":"uint256","indexed":false,"internalType":"uint256"}],"anonymous":false},{"type":"event","name":"Unstaked","inputs":[{"name":"user","type":"address","indexed":true,"internalType":"address"},{"name":"amount","type":"uint256","indexed":false,"internalType":"uint256"},{"name":"reward","type":"uint256","indexed":false,"internalType":"uint256"}],"anonymous":false},{"type":"error","name":"ERC20InsufficientAllowance","inputs":[{"name":"spender","type":"address","internalType":"address"},{"name":"allowance","type":"uint256","internalType":"uint256"},{"name":"needed","type":"uint256","internalType":"uint256"}]},{"type":"error","name":"ERC20InsufficientBalance","inputs":[{"name":"sender","type":"address","internalType":"address"},{"name":"balance","type":"uint256","internalType":"uint256"},{"name":"needed","type":"uint256","internalType":"uint256"}]},{"type":"error","name":"ERC20InvalidApprover","inputs":[{"name":"approver","type":"address","internalType":"address"}]},{"type":"error","name":"ERC20InvalidReceiver","inputs":[{"name":"receiver","type":"address","internalType":"address"}]},{"type":"error","name":"ERC20InvalidSender","inputs":[{"name":"sender","type":"address","internalType":"address"}]},{"type":"error","name":"ERC20InvalidSpender","inputs":[{"name":"spender","type":"address","internalType":"address"}]},{"type":"error","name":"OwnableInvalidOwner","inputs":[{"name":"owner","type":"address","internalType":"address"}]},{"type":"error","name":"OwnableUnauthorizedAccount","inputs":[{"name":"account","type":"address","internalType":"address"}]}],"bytecode":{"object":"0x60806040526103e8600955348015610015575f5ffd5b506040516113743803806113748339810160408190526100349161029a565b3360405180604001604052806004815260200163644f726760e01b81525060405180604001604052806004815260200163444f524760e01b815250816003908161007e9190610349565b50600461008b8282610349565b5050506001600160a01b0381166100bc57604051631e4fbdf760e01b81525f60048201526024015b60405180910390fd5b6100c5816100eb565b506100e5336100d66012600a6104fc565b6100e09084610511565b61013c565b5061053b565b600580546001600160a01b038381166001600160a01b0319831681179093556040519116919082907f8be0079c531659141344cd1fd0a4f28419497f9722a3daafe3b4186f6b6457e0905f90a35050565b6001600160a01b0382166101655760405163ec442f0560e01b81525f60048201526024016100b3565b6101705f8383610174565b5050565b6001600160a01b03831661019e578060025f8282546101939190610528565b9091555061020e9050565b6001600160a01b0383165f90815260208190526040902054818110156101f05760405163391434e360e21b81526001600160a01b038516600482015260248101829052604481018390526064016100b3565b6001600160a01b0384165f9081526020819052604090209082900390555b6001600160a01b03821661022a57600280548290039055610248565b6001600160a01b0382165f9081526020819052604090208054820190555b816001600160a01b0316836001600160a01b03167fddf252ad1be2c89b69c2b068fc378daa952ba7f163c4a11628f55a4df523b3ef8360405161028d91815260200190565b60405180910390a3505050565b5f602082840312156102aa575f5ffd5b5051919050565b634e487b7160e01b5f52604160045260245ffd5b600181811c908216806102d957607f821691505b6020821081036102f757634e487b7160e01b5f52602260045260245ffd5b50919050565b601f82111561034457805f5260205f20601f840160051c810160208510156103225750805b601f840160051c820191505b81811015610341575f815560010161032e565b50505b505050565b81516001600160401b03811115610362576103626102b1565b6103768161037084546102c5565b846102fd565b6020601f8211600181146103a8575f83156103915750848201515b5f19600385901b1c1916600184901b178455610341565b5f84815260208120601f198516915b828110156103d757878501518255602094850194600190920191016103b7565b50848210156103f457868401515f19600387901b60f8161c191681555b50505050600190811b01905550565b634e487b7160e01b5f52601160045260245ffd5b6001815b60018411156104525780850481111561043657610436610403565b600184161561044457908102905b60019390931c92800261041b565b935093915050565b5f82610468575060016104f6565b8161047457505f6104f6565b816001811461048a5760028114610494576104b0565b60019150506104f6565b60ff8411156104a5576104a5610403565b50506001821b6104f6565b5060208310610133831016604e8410600b84101617156104d3575081810a6104f6565b6104df5f198484610417565b805f19048211156104f2576104f2610403565b0290505b92915050565b5f61050a60ff84168361045a565b9392505050565b80820281158282048414176104f6576104f6610403565b808201808211156104f6576104f6610403565b610e2c806105485f395ff3fe608060405234801561000f575f5ffd5b5060043610610132575f3560e01c80637547c7a3116100b4578063a5ce413b11610079578063a5ce413b1461028f578063a9059cbb14610297578063aa4704f3146102aa578063d82e3962146102df578063dd62ed3e146102f2578063f2fde38b1461032a575f5ffd5b80637547c7a3146102315780637b0a47ee146102445780638da5cb5b1461024d5780638f0794fe1461026857806395d89b4114610287575f5ffd5b806340c10f19116100fa57806340c10f19146101ab57806345bc78ab146101c05780636f49712b146101df57806370a0823114610201578063715018a614610229575f5ffd5b806306fdde0314610136578063095ea7b31461015457806318160ddd1461017757806323b872dd14610189578063313ce5671461019c575b5f5ffd5b61013e61033d565b60405161014b9190610c34565b60405180910390f35b610167610162366004610c84565b6103cd565b604051901515815260200161014b565b6002545b60405190815260200161014b565b610167610197366004610cac565b6103e6565b6040516012815260200161014b565b6101be6101b9366004610c84565b610409565b005b61017b6101ce366004610ce6565b60066020525f908152604090205481565b6101676101ed366004610ce6565b60086020525f908152604090205460ff1681565b61017b61020f366004610ce6565b6001600160a01b03165f9081526020819052604090205490565b6101be610417565b6101be61023f366004610d06565b61042a565b61017b60095481565b6005546040516001600160a01b03909116815260200161014b565b61017b610276366004610ce6565b60076020525f908152604090205481565b61013e61058a565b6101be610599565b6101676102a5366004610c84565b6106cf565b6102bd6102b8366004610ce6565b6106dc565b604080519485526020850193909352918301521515606082015260800161014b565b61017b6102ed366004610ce6565b61078d565b61017b610300366004610d1d565b6001600160a01b039182165f90815260016020908152604080832093909416825291909152205490565b6101be610338366004610ce6565b610862565b60606003805461034c90610d4e565b80601f016020809104026020016040519081016040528092919081815260200182805461037890610d4e565b80156103c35780601f1061039a576101008083540402835291602001916103c3565b820191905f5260205f20905b8154815290600101906020018083116103a657829003601f168201915b5050505050905090565b5f336103da81858561089f565b60019150505b92915050565b5f336103f38582856108b1565b6103fe85858561092d565b506001949350505050565b610413828261098a565b5050565b61041f6109be565b6104285f6109eb565b565b5f811161047e5760405162461bcd60e51b815260206004820152601d60248201527f416d6f756e74206d7573742062652067726561746572207468616e203000000060448201526064015b60405180910390fd5b335f908152602081905260409020548111156104d35760405162461bcd60e51b8152602060048201526014602482015273496e73756666696369656e742062616c616e636560601b6044820152606401610475565b335f9081526008602052604090205460ff1615610502575f6104f43361078d565b9050610500338261098a565b505b61050d33308361092d565b335f908152600660205260408120805483929061052b908490610d9a565b9091555050335f8181526007602090815260408083204290556008825291829020805460ff1916600117905590518381527f9e71bc8eea02a63969f509818f2dafb9254532904319f9dbda79b67bd34a5f3d910160405180910390a250565b60606004805461034c90610d4e565b335f9081526008602052604090205460ff166105ea5760405162461bcd60e51b815260206004820152601060248201526f139bc81d1bdad95b9cc81cdd185ad95960821b6044820152606401610475565b335f9081526006602052604090205461063c5760405162461bcd60e51b815260206004820152601460248201527305374616b696e672062616c616e636520697320360641b6044820152606401610475565b5f6106463361078d565b335f818152600660209081526040808320805490849055600783528184208490556008909252909120805460ff191690559192506106869030908361092d565b610690338361098a565b604080518281526020810184905233917f7fc4727e062e336010f2c282598ef5f14facb3de68cf8195c2f23e1454b2b74e910160405180910390a25050565b5f336103da81858561092d565b6001600160a01b0381165f9081526006602090815260408083205460089092528220549091908190819060ff16610713575f610735565b6001600160a01b0385165f908152600760205260409020546107359042610dad565b6001600160a01b0386165f9081526008602052604090205490935060ff1661075d575f610766565b6107668561078d565b6001600160a01b0386165f9081526008602052604090205490925060ff1690509193509193565b6001600160a01b0381165f9081526008602052604081205460ff166107ea5760405162461bcd60e51b815260206004820152601360248201527255736572206973206e6f74207374616b696e6760681b6044820152606401610475565b6001600160a01b0382165f9081526007602052604081205461080c9042610dad565b90506301e133805f61081f826064610dc0565b6009546001600160a01b0387165f90815260066020526040902054859161084591610dc0565b61084f9190610dc0565b6108599190610dd7565b95945050505050565b61086a6109be565b6001600160a01b03811661089357604051631e4fbdf760e01b81525f6004820152602401610475565b61089c816109eb565b50565b6108ac8383836001610a3c565b505050565b6001600160a01b038381165f908152600160209081526040808320938616835292905220545f19811015610927578181101561091957604051637dc7a0d960e11b81526001600160a01b03841660048201526024810182905260448101839052606401610475565b61092784848484035f610a3c565b50505050565b6001600160a01b03831661095657604051634b637e8f60e11b81525f6004820152602401610475565b6001600160a01b03821661097f5760405163ec442f0560e01b81525f6004820152602401610475565b6108ac838383610b0e565b6001600160a01b0382166109b35760405163ec442f0560e01b81525f6004820152602401610475565b6104135f8383610b0e565b6005546001600160a01b031633146104285760405163118cdaa760e01b8152336004820152602401610475565b600580546001600160a01b038381166001600160a01b0319831681179093556040519116919082907f8be0079c531659141344cd1fd0a4f28419497f9722a3daafe3b4186f6b6457e0905f90a35050565b6001600160a01b038416610a655760405163e602df0560e01b81525f6004820152602401610475565b6001600160a01b038316610a8e57604051634a1406b160e11b81525f6004820152602401610475565b6001600160a01b038085165f908152600160209081526040808320938716835292905220829055801561092757826001600160a01b0316846001600160a01b03167f8c5be1e5ebec7d5bd14f71427d1e84f3dd0314c0f7b2291e5b200ac8c7c3b92584604051610b0091815260200190565b60405180910390a350505050565b6001600160a01b038316610b38578060025f828254610b2d9190610d9a565b90915550610ba89050565b6001600160a01b0383165f9081526020819052604090205481811015610b8a5760405163391434e360e21b81526001600160a01b03851660048201526024810182905260448101839052606401610475565b6001600160a01b0384165f9081526020819052604090209082900390555b6001600160a01b038216610bc457600280548290039055610be2565b6001600160a01b0382165f9081526020819052604090208054820190555b816001600160a01b0316836001600160a01b03167fddf252ad1be2c89b69c2b068fc378daa952ba7f163c4a11628f55a4df523b3ef83604051610c2791815260200190565b60405180910390a3505050565b602081525f82518060208401528060208501604085015e5f604082850101526040601f19601f83011684010191505092915050565b80356001600160a01b0381168114610c7f575f5ffd5b919050565b5f5f60408385031215610c95575f5ffd5b610c9e83610c69565b946020939093013593505050565b5f5f5f60608486031215610cbe575f5ffd5b610cc784610c69565b9250610cd560208501610c69565b929592945050506040919091013590565b5f60208284031215610cf6575f5ffd5b610cff82610c69565b9392505050565b5f60208284031215610d16575f5ffd5b5035919050565b5f5f60408385031215610d2e575f5ffd5b610d3783610c69565b9150610d4560208401610c69565b90509250929050565b600181811c90821680610d6257607f821691505b602082108103610d8057634e487b7160e01b5f52602260045260245ffd5b50919050565b634e487b7160e01b5f52601160045260245ffd5b808201808211156103e0576103e0610d86565b818103818111156103e0576103e0610d86565b80820281158282048414176103e0576103e0610d86565b5f82610df157634e487b7160e01b5f52601260045260245ffd5b50049056fea2646970667358221220b33ebf686b51f4518f000d6cd75a35f87cc28406683c35655633a5b1838d0e1c64736f6c634300081c0033","linkReferences":{}},"methodIdentifiers":{"allowance(address,address)":"dd62ed3e","approve(address,uint256)":"095ea7b3","balanceOf(address)":"70a08231","calculateReward(address)":"d82e3962","decimals()":"313ce567","getStakingInfo(address)":"aa4704f3","isStaking(address)":"6f49712b","mint(address,uint256)":"40c10f19","name()":"06fdde03","owner()":"8da5cb5b","renounceOwnership()":"715018a6","rewardRate()":"7b0a47ee","stakeTokens(uint256)":"7547c7a3","stakingBalance(address)":"45bc78ab","stakingTimestamp(address)":"8f0794fe","symbol()":"95d89b41","totalSupply()":"18160ddd","transfer(address,uint256)":"a9059cbb","transferFrom(address,address,uint256)":"23b872dd","transferOwnership(address)":"f2fde38b","unstakeTokens()":"a5ce413b"},"id":6}